:020000020000FC
:0200000045C0F9
:10008C000FEF0DBF00E10EBF00E008BB0FEF07BB89
:10009C000FEF02BB00E001BB00EA0093990001E006
:1000AC000093980008E000939A000EE200939D00E4
:1000BC00789400B30E3F11F415D0FBCF0D3F11F423
:1000CC001BD0F7CF0F3E11F421D0F3CF0F3D11F41D
:1000DC0027D0EFCF0F3B11F42DD0EBCF0F3749F7D3
:1000EC0033D0E7CF3DD000EB08BB00939C000091D0
:1000FC009B000036E1F7089533D000E808BB00936D
:10010C009C0000919B000036E1F7089529D000EA8D
:10011C0008BB00939C0000919B000036E1F708950A
:10012C001FD000E908BB00939C0000919B00003697
:10013C00E1F7089515D008EC08BB00939C000091E2
:10014C009B000036E1F708950BD008EF08BB009335
:10015C009C0000919B000036E1F729E109D008953D
:10016C000DE000939C0000919B000036E1F7089590
:10017C002F933F934F9340EE3DEE3A95F1F74A950E
:0E018C00D9F72A95C1F74F913F912F91089511
:00000001FF
