:020000020000FC
:0200000045C0F9
:08000400B9D01895CED0189573
:0400780030D01895D7
:10008C000FEF0DBF00E10EBF00E008BB0FEF07BB89
:10009C000FEF02BB00E001BB00EA0093990001E006
:1000AC000093980008E900939A000EE000939D00DD
:1000BC0003E009BF0AE000936A007894C0E0D1E045
:1000CC0000E00883E0E4F1E003E00083FFCF1F933E
:1000DC000F930FB72F930F93CF93DF93EF93FF9360
:1000EC0000919C000535C1F007FD0CC000C0C0E0BC
:1000FC00D1E018810D3019F010E018832CC011E0FC
:10010C00188329C0C0E0D1E0188110FF24C0001F63
:10011C00003F91F008BB1FC0F89418EC111F18BBDE
:10012C0024E652D0E0E4F1E000810A95F1F000837E
:10013C0003E008BF78940FC005E508BB00939C0052
:10014C0000919B0006FFFCCF00919B0007FFFCCFAA
:10015C0000919C0000C0FF91EF91DF91CF910F9126
:10016C002F910FBF0F911F910895FFCF0F932F93D6
:10017C000FB70F93F89400E008BB24E625D000E2FB
:10018C0008BB24E621D000E608BB03E008BF789446
:10019C000F910FBF2F910F9108950F932F930FB7BE
:1001AC000F93F89400E008BB24E60ED000E408BBE3
:1001BC0024E60AD000E608BB03E008BF78940F9150
:1001CC000FBF2F910F9108952F933F934F9340EEB4
:1001DC003DEE3A95F1F74A95D9F72A95C1F74F912B
:0601EC003F912F910895E0
:00000001FF
